{
  "_format": "hh-sol-artifact-1",
  "contractName": "NFTMarketplaceWithEscrow",
  "sourceName": "contracts/NFTMarketPlace.sol",
  "abi": [
    {
      "inputs": [
        {
          "internalType": "address",
          "name": "_nftContract",
          "type": "address"
        },
        {
          "internalType": "address",
          "name": "_owner",
          "type": "address"
        }
      ],
      "stateMutability": "nonpayable",
      "type": "constructor"
    },
    {
      "anonymous": false,
      "inputs": [
        {
          "indexed": true,
          "internalType": "uint256",
          "name": "tokenId",
          "type": "uint256"
        },
        {
          "indexed": true,
          "internalType": "address",
          "name": "buyer",
          "type": "address"
        },
        {
          "indexed": false,
          "internalType": "uint256",
          "name": "amount",
          "type": "uint256"
        }
      ],
      "name": "EscrowDeposited",
      "type": "event"
    },
    {
      "anonymous": false,
      "inputs": [
        {
          "indexed": true,
          "internalType": "uint256",
          "name": "tokenId",
          "type": "uint256"
        },
        {
          "indexed": true,
          "internalType": "address",
          "name": "seller",
          "type": "address"
        },
        {
          "indexed": false,
          "internalType": "uint256",
          "name": "price",
          "type": "uint256"
        },
        {
          "indexed": false,
          "internalType": "uint256",
          "name": "escrowAmount",
          "type": "uint256"
        }
      ],
      "name": "ListingCreated",
      "type": "event"
    },
    {
      "anonymous": false,
      "inputs": [
        {
          "indexed": true,
          "internalType": "uint256",
          "name": "tokenId",
          "type": "uint256"
        }
      ],
      "name": "ListingMadePublic",
      "type": "event"
    },
    {
      "anonymous": false,
      "inputs": [
        {
          "indexed": true,
          "internalType": "uint256",
          "name": "tokenId",
          "type": "uint256"
        },
        {
          "indexed": true,
          "internalType": "address",
          "name": "seller",
          "type": "address"
        }
      ],
      "name": "ListingRemoved",
      "type": "event"
    },
    {
      "anonymous": false,
      "inputs": [
        {
          "indexed": true,
          "internalType": "uint256",
          "name": "tokenId",
          "type": "uint256"
        },
        {
          "indexed": true,
          "internalType": "address",
          "name": "buyer",
          "type": "address"
        },
        {
          "indexed": false,
          "internalType": "uint256",
          "name": "price",
          "type": "uint256"
        }
      ],
      "name": "ListingSold",
      "type": "event"
    },
    {
      "inputs": [
        {
          "internalType": "uint256",
          "name": "",
          "type": "uint256"
        },
        {
          "internalType": "address",
          "name": "",
          "type": "address"
        }
      ],
      "name": "approvals",
      "outputs": [
        {
          "internalType": "bool",
          "name": "",
          "type": "bool"
        }
      ],
      "stateMutability": "view",
      "type": "function"
    },
    {
      "inputs": [
        {
          "internalType": "uint256",
          "name": "tokenId",
          "type": "uint256"
        }
      ],
      "name": "approveNFTListing",
      "outputs": [],
      "stateMutability": "nonpayable",
      "type": "function"
    },
    {
      "inputs": [
        {
          "internalType": "uint256",
          "name": "tokenId",
          "type": "uint256"
        }
      ],
      "name": "buyNFT",
      "outputs": [],
      "stateMutability": "payable",
      "type": "function"
    },
    {
      "inputs": [
        {
          "internalType": "uint256",
          "name": "tokenId",
          "type": "uint256"
        }
      ],
      "name": "cancelEscrow",
      "outputs": [],
      "stateMutability": "nonpayable",
      "type": "function"
    },
    {
      "inputs": [
        {
          "internalType": "uint256",
          "name": "tokenId",
          "type": "uint256"
        }
      ],
      "name": "finalizeSale",
      "outputs": [],
      "stateMutability": "nonpayable",
      "type": "function"
    },
    {
      "inputs": [
        {
          "internalType": "uint256",
          "name": "tokenId",
          "type": "uint256"
        }
      ],
      "name": "getApproved",
      "outputs": [
        {
          "internalType": "address",
          "name": "",
          "type": "address"
        }
      ],
      "stateMutability": "view",
      "type": "function"
    },
    {
      "inputs": [],
      "name": "inspector",
      "outputs": [
        {
          "internalType": "address",
          "name": "",
          "type": "address"
        }
      ],
      "stateMutability": "view",
      "type": "function"
    },
    {
      "inputs": [
        {
          "internalType": "uint256",
          "name": "",
          "type": "uint256"
        }
      ],
      "name": "isPublic",
      "outputs": [
        {
          "internalType": "bool",
          "name": "",
          "type": "bool"
        }
      ],
      "stateMutability": "view",
      "type": "function"
    },
    {
      "inputs": [],
      "name": "lender",
      "outputs": [
        {
          "internalType": "address",
          "name": "",
          "type": "address"
        }
      ],
      "stateMutability": "view",
      "type": "function"
    },
    {
      "inputs": [
        {
          "internalType": "uint256",
          "name": "tokenId",
          "type": "uint256"
        },
        {
          "internalType": "uint256",
          "name": "price",
          "type": "uint256"
        },
        {
          "internalType": "uint256",
          "name": "escrowAmount",
          "type": "uint256"
        },
        {
          "internalType": "bool",
          "name": "_isPublic",
          "type": "bool"
        }
      ],
      "name": "listNFT",
      "outputs": [],
      "stateMutability": "nonpayable",
      "type": "function"
    },
    {
      "inputs": [
        {
          "internalType": "uint256",
          "name": "",
          "type": "uint256"
        }
      ],
      "name": "listings",
      "outputs": [
        {
          "internalType": "address payable",
          "name": "seller",
          "type": "address"
        },
        {
          "internalType": "address payable",
          "name": "buyer",
          "type": "address"
        },
        {
          "internalType": "uint256",
          "name": "price",
          "type": "uint256"
        },
        {
          "internalType": "uint256",
          "name": "escrowAmount",
          "type": "uint256"
        },
        {
          "internalType": "bool",
          "name": "isListed",
          "type": "bool"
        }
      ],
      "stateMutability": "view",
      "type": "function"
    },
    {
      "inputs": [
        {
          "internalType": "uint256",
          "name": "tokenId",
          "type": "uint256"
        }
      ],
      "name": "makeListingPublic",
      "outputs": [],
      "stateMutability": "nonpayable",
      "type": "function"
    },
    {
      "inputs": [],
      "name": "nftContract",
      "outputs": [
        {
          "internalType": "contract IERC721",
          "name": "",
          "type": "address"
        }
      ],
      "stateMutability": "view",
      "type": "function"
    },
    {
      "inputs": [
        {
          "internalType": "uint256",
          "name": "tokenId",
          "type": "uint256"
        }
      ],
      "name": "removeNFTListing",
      "outputs": [],
      "stateMutability": "nonpayable",
      "type": "function"
    },
    {
      "inputs": [
        {
          "internalType": "address",
          "name": "_inspector",
          "type": "address"
        }
      ],
      "name": "setInspector",
      "outputs": [],
      "stateMutability": "nonpayable",
      "type": "function"
    },
    {
      "inputs": [
        {
          "internalType": "address",
          "name": "_lender",
          "type": "address"
        }
      ],
      "name": "setLender",
      "outputs": [],
      "stateMutability": "nonpayable",
      "type": "function"
    },
    {
      "inputs": [
        {
          "internalType": "address",
          "name": "_owner",
          "type": "address"
        }
      ],
      "name": "setOwner",
      "outputs": [],
      "stateMutability": "nonpayable",
      "type": "function"
    }
  ],
  "bytecode": "0x60806040523480156200001157600080fd5b50604051620026573803806200265783398181016040528101906200003791906200012a565b816000806101000a81548173ffffffffffffffffffffffffffffffffffffffff021916908373ffffffffffffffffffffffffffffffffffffffff16021790555080600360006101000a81548173ffffffffffffffffffffffffffffffffffffffff021916908373ffffffffffffffffffffffffffffffffffffffff160217905550505062000171565b600080fd5b600073ffffffffffffffffffffffffffffffffffffffff82169050919050565b6000620000f282620000c5565b9050919050565b6200010481620000e5565b81146200011057600080fd5b50565b6000815190506200012481620000f9565b92915050565b60008060408385031215620001445762000143620000c0565b5b6000620001548582860162000113565b9250506020620001678582860162000113565b9150509250929050565b6124d680620001816000396000f3fe6080604052600436106100fe5760003560e01c8063ab2850da11610095578063d56d229d11610064578063d56d229d14610320578063de74e57b1461034b578063e01824361461038c578063e6ee4510146103b5578063ed2cee9e146103de576100fe565b8063ab2850da14610266578063b2230b7e146102a3578063bcead63e146102cc578063c85e45c1146102f7576100fe565b80634e5cbf61116100d15780634e5cbf61146101bb57806351ed8288146101e45780635b2dfeb814610200578063aa9293801461023d576100fe565b8063081812fc1461010357806313af4035146101405780632804e7ef1461016957806346e368d414610192575b600080fd5b34801561010f57600080fd5b5061012a60048036038101906101259190611c0e565b610409565b6040516101379190611c7c565b60405180910390f35b34801561014c57600080fd5b5061016760048036038101906101629190611cc3565b610449565b005b34801561017557600080fd5b50610190600480360381019061018b9190611d28565b61051d565b005b34801561019e57600080fd5b506101b960048036038101906101b49190611cc3565b6108c8565b005b3480156101c757600080fd5b506101e260048036038101906101dd9190611cc3565b61099c565b005b6101fe60048036038101906101f99190611c0e565b610a70565b005b34801561020c57600080fd5b5061022760048036038101906102229190611c0e565b610e03565b6040516102349190611d9e565b60405180910390f35b34801561024957600080fd5b50610264600480360381019061025f9190611c0e565b610e23565b005b34801561027257600080fd5b5061028d60048036038101906102889190611db9565b6111cd565b60405161029a9190611d9e565b60405180910390f35b3480156102af57600080fd5b506102ca60048036038101906102c59190611c0e565b6111fc565b005b3480156102d857600080fd5b506102e161150e565b6040516102ee9190611c7c565b60405180910390f35b34801561030357600080fd5b5061031e60048036038101906103199190611c0e565b611534565b005b34801561032c57600080fd5b50610335611744565b6040516103429190611e58565b60405180910390f35b34801561035757600080fd5b50610372600480360381019061036d9190611c0e565b611768565b604051610383959493929190611ea3565b60405180910390f35b34801561039857600080fd5b506103b360048036038101906103ae9190611c0e565b6117eb565b005b3480156103c157600080fd5b506103dc60048036038101906103d79190611c0e565b611aec565b005b3480156103ea57600080fd5b506103f3611bad565b6040516104009190611c7c565b60405180910390f35b60006004600083815260200190815260200160002060010160009054906101000a900473ffffffffffffffffffffffffffffffffffffffff169050919050565b600360009054906101000a900473ffffffffffffffffffffffffffffffffffffffff1673ffffffffffffffffffffffffffffffffffffffff163373ffffffffffffffffffffffffffffffffffffffff16146104d9576040517f08c379a00000000000000000000000000000000000000000000000000000000081526004016104d090611f79565b60405180910390fd5b80600360006101000a81548173ffffffffffffffffffffffffffffffffffffffff021916908373ffffffffffffffffffffffffffffffffffffffff16021790555050565b3373ffffffffffffffffffffffffffffffffffffffff1660008054906101000a900473ffffffffffffffffffffffffffffffffffffffff1673ffffffffffffffffffffffffffffffffffffffff16636352211e866040518263ffffffff1660e01b815260040161058d9190611f99565b602060405180830381865afa1580156105aa573d6000803e3d6000fd5b505050506040513d601f19601f820116820180604052508101906105ce9190611fc9565b73ffffffffffffffffffffffffffffffffffffffff1614610624576040517f08c379a000000000000000000000000000000000000000000000000000000000815260040161061b90612042565b60405180910390fd5b6004600085815260200190815260200160002060040160009054906101000a900460ff1615610688576040517f08c379a000000000000000000000000000000000000000000000000000000000815260040161067f906120ae565b60405180910390fd5b60008054906101000a900473ffffffffffffffffffffffffffffffffffffffff1673ffffffffffffffffffffffffffffffffffffffff166323b872dd3330876040518463ffffffff1660e01b81526004016106e5939291906120ce565b600060405180830381600087803b1580156106ff57600080fd5b505af1158015610713573d6000803e3d6000fd5b505050506040518060a001604052803373ffffffffffffffffffffffffffffffffffffffff168152602001600073ffffffffffffffffffffffffffffffffffffffff168152602001848152602001838152602001600115158152506004600086815260200190815260200160002060008201518160000160006101000a81548173ffffffffffffffffffffffffffffffffffffffff021916908373ffffffffffffffffffffffffffffffffffffffff16021790555060208201518160010160006101000a81548173ffffffffffffffffffffffffffffffffffffffff021916908373ffffffffffffffffffffffffffffffffffffffff160217905550604082015181600201556060820151816003015560808201518160040160006101000a81548160ff021916908315150217905550905050806006600086815260200190815260200160002060006101000a81548160ff0219169083151502179055503373ffffffffffffffffffffffffffffffffffffffff16847f12dc294b81a709d694b1337a350a12a00076c19a77a25aab67a5f0c07e0f164d85856040516108ba929190612105565b60405180910390a350505050565b600360009054906101000a900473ffffffffffffffffffffffffffffffffffffffff1673ffffffffffffffffffffffffffffffffffffffff163373ffffffffffffffffffffffffffffffffffffffff1614610958576040517f08c379a000000000000000000000000000000000000000000000000000000000815260040161094f90611f79565b60405180910390fd5b80600260006101000a81548173ffffffffffffffffffffffffffffffffffffffff021916908373ffffffffffffffffffffffffffffffffffffffff16021790555050565b600360009054906101000a900473ffffffffffffffffffffffffffffffffffffffff1673ffffffffffffffffffffffffffffffffffffffff163373ffffffffffffffffffffffffffffffffffffffff1614610a2c576040517f08c379a0000000000000000000000000000000000000000000000000000000008152600401610a2390611f79565b60405180910390fd5b80600160006101000a81548173ffffffffffffffffffffffffffffffffffffffff021916908373ffffffffffffffffffffffffffffffffffffffff16021790555050565b6000600460008381526020019081526020016000206040518060a00160405290816000820160009054906101000a900473ffffffffffffffffffffffffffffffffffffffff1673ffffffffffffffffffffffffffffffffffffffff1673ffffffffffffffffffffffffffffffffffffffff1681526020016001820160009054906101000a900473ffffffffffffffffffffffffffffffffffffffff1673ffffffffffffffffffffffffffffffffffffffff1673ffffffffffffffffffffffffffffffffffffffff16815260200160028201548152602001600382015481526020016004820160009054906101000a900460ff16151515158152505090508060800151610bb1576040517f08c379a0000000000000000000000000000000000000000000000000000000008152600401610ba89061217a565b60405180910390fd5b6006600083815260200190815260200160002060009054906101000a900460ff16610c11576040517f08c379a0000000000000000000000000000000000000000000000000000000008152600401610c08906121e6565b60405180910390fd5b8060400151341015610c58576040517f08c379a0000000000000000000000000000000000000000000000000000000008152600401610c4f90612252565b60405180910390fd5b8060600151341015610c9f576040517f08c379a0000000000000000000000000000000000000000000000000000000008152600401610c96906122be565b60405180910390fd5b33816020019073ffffffffffffffffffffffffffffffffffffffff16908173ffffffffffffffffffffffffffffffffffffffff1681525050806004600084815260200190815260200160002060008201518160000160006101000a81548173ffffffffffffffffffffffffffffffffffffffff021916908373ffffffffffffffffffffffffffffffffffffffff16021790555060208201518160010160006101000a81548173ffffffffffffffffffffffffffffffffffffffff021916908373ffffffffffffffffffffffffffffffffffffffff160217905550604082015181600201556060820151816003015560808201518160040160006101000a81548160ff0219169083151502179055509050503373ffffffffffffffffffffffffffffffffffffffff16827f8e378317cc1b9c64766fd136e5849da5f702d26a8f8b750115b7422909b2309f34604051610df79190611f99565b60405180910390a35050565b60066020528060005260406000206000915054906101000a900460ff1681565b6000600460008381526020019081526020016000206040518060a00160405290816000820160009054906101000a900473ffffffffffffffffffffffffffffffffffffffff1673ffffffffffffffffffffffffffffffffffffffff1673ffffffffffffffffffffffffffffffffffffffff1681526020016001820160009054906101000a900473ffffffffffffffffffffffffffffffffffffffff1673ffffffffffffffffffffffffffffffffffffffff1673ffffffffffffffffffffffffffffffffffffffff16815260200160028201548152602001600382015481526020016004820160009054906101000a900460ff16151515158152505090508060800151610f64576040517f08c379a0000000000000000000000000000000000000000000000000000000008152600401610f5b9061217a565b60405180910390fd5b806000015173ffffffffffffffffffffffffffffffffffffffff163373ffffffffffffffffffffffffffffffffffffffff1614610fd6576040517f08c379a0000000000000000000000000000000000000000000000000000000008152600401610fcd90612350565b60405180910390fd5b60008054906101000a900473ffffffffffffffffffffffffffffffffffffffff1673ffffffffffffffffffffffffffffffffffffffff166323b872dd308360200151856040518463ffffffff1660e01b815260040161103793929190612391565b600060405180830381600087803b15801561105157600080fd5b505af1158015611065573d6000803e3d6000fd5b50505050806000015173ffffffffffffffffffffffffffffffffffffffff166108fc82604001519081150290604051600060405180830381858888f193505050501580156110b7573d6000803e3d6000fd5b5060008160600151111561111557806020015173ffffffffffffffffffffffffffffffffffffffff166108fc82606001519081150290604051600060405180830381858888f19350505050158015611113573d6000803e3d6000fd5b505b60046000838152602001908152602001600020600080820160006101000a81549073ffffffffffffffffffffffffffffffffffffffff02191690556001820160006101000a81549073ffffffffffffffffffffffffffffffffffffffff0219169055600282016000905560038201600090556004820160006101000a81549060ff0219169055505060006006600084815260200190815260200160002060006101000a81548160ff0219169083151502179055505050565b60056020528160005260406000206020528060005260406000206000915091509054906101000a900460ff1681565b6000600460008381526020019081526020016000206040518060a00160405290816000820160009054906101000a900473ffffffffffffffffffffffffffffffffffffffff1673ffffffffffffffffffffffffffffffffffffffff1673ffffffffffffffffffffffffffffffffffffffff1681526020016001820160009054906101000a900473ffffffffffffffffffffffffffffffffffffffff1673ffffffffffffffffffffffffffffffffffffffff1673ffffffffffffffffffffffffffffffffffffffff16815260200160028201548152602001600382015481526020016004820160009054906101000a900460ff1615151515815250509050806080015161133d576040517f08c379a00000000000000000000000000000000000000000000000000000000081526004016113349061217a565b60405180910390fd5b3373ffffffffffffffffffffffffffffffffffffffff16816000015173ffffffffffffffffffffffffffffffffffffffff16146113af576040517f08c379a00000000000000000000000000000000000000000000000000000000081526004016113a690612414565b60405180910390fd5b60008054906101000a900473ffffffffffffffffffffffffffffffffffffffff1673ffffffffffffffffffffffffffffffffffffffff166323b872dd3033856040518463ffffffff1660e01b815260040161140c939291906120ce565b600060405180830381600087803b15801561142657600080fd5b505af115801561143a573d6000803e3d6000fd5b5050505060046000838152602001908152602001600020600080820160006101000a81549073ffffffffffffffffffffffffffffffffffffffff02191690556001820160006101000a81549073ffffffffffffffffffffffffffffffffffffffff0219169055600282016000905560038201600090556004820160006101000a81549060ff021916905550503373ffffffffffffffffffffffffffffffffffffffff16827f58b0852506006c4be6c7ae72afcd195d9e64d7f5d8947905e914b778e47b7cf360405160405180910390a35050565b600260009054906101000a900473ffffffffffffffffffffffffffffffffffffffff1681565b6000600460008381526020019081526020016000206040518060a00160405290816000820160009054906101000a900473ffffffffffffffffffffffffffffffffffffffff1673ffffffffffffffffffffffffffffffffffffffff1673ffffffffffffffffffffffffffffffffffffffff1681526020016001820160009054906101000a900473ffffffffffffffffffffffffffffffffffffffff1673ffffffffffffffffffffffffffffffffffffffff1673ffffffffffffffffffffffffffffffffffffffff16815260200160028201548152602001600382015481526020016004820160009054906101000a900460ff16151515158152505090508060800151611675576040517f08c379a000000000000000000000000000000000000000000000000000000000815260040161166c9061217a565b60405180910390fd5b3373ffffffffffffffffffffffffffffffffffffffff16816000015173ffffffffffffffffffffffffffffffffffffffff16146116e7576040517f08c379a00000000000000000000000000000000000000000000000000000000081526004016116de90612414565b60405180910390fd5b60016006600084815260200190815260200160002060006101000a81548160ff021916908315150217905550817fbf0a165a83b6c198f805ce641ca3398141352c5027bce43c7279ecc038237f6b60405160405180910390a25050565b60008054906101000a900473ffffffffffffffffffffffffffffffffffffffff1681565b60046020528060005260406000206000915090508060000160009054906101000a900473ffffffffffffffffffffffffffffffffffffffff16908060010160009054906101000a900473ffffffffffffffffffffffffffffffffffffffff16908060020154908060030154908060040160009054906101000a900460ff16905085565b6000600460008381526020019081526020016000206040518060a00160405290816000820160009054906101000a900473ffffffffffffffffffffffffffffffffffffffff1673ffffffffffffffffffffffffffffffffffffffff1673ffffffffffffffffffffffffffffffffffffffff1681526020016001820160009054906101000a900473ffffffffffffffffffffffffffffffffffffffff1673ffffffffffffffffffffffffffffffffffffffff1673ffffffffffffffffffffffffffffffffffffffff16815260200160028201548152602001600382015481526020016004820160009054906101000a900460ff1615151515815250509050806080015161192c576040517f08c379a00000000000000000000000000000000000000000000000000000000081526004016119239061217a565b60405180910390fd5b3373ffffffffffffffffffffffffffffffffffffffff16816000015173ffffffffffffffffffffffffffffffffffffffff16148061199957503373ffffffffffffffffffffffffffffffffffffffff16816020015173ffffffffffffffffffffffffffffffffffffffff16145b6119d8576040517f08c379a00000000000000000000000000000000000000000000000000000000081526004016119cf90612480565b60405180910390fd5b600073ffffffffffffffffffffffffffffffffffffffff16816020015173ffffffffffffffffffffffffffffffffffffffff1614611a6057806020015173ffffffffffffffffffffffffffffffffffffffff166108fc82606001519081150290604051600060405180830381858888f19350505050158015611a5e573d6000803e3d6000fd5b505b60046000838152602001908152602001600020600080820160006101000a81549073ffffffffffffffffffffffffffffffffffffffff02191690556001820160006101000a81549073ffffffffffffffffffffffffffffffffffffffff0219169055600282016000905560038201600090556004820160006101000a81549060ff021916905550505050565b336004600083815260200190815260200160002060010160006101000a81548173ffffffffffffffffffffffffffffffffffffffff021916908373ffffffffffffffffffffffffffffffffffffffff16021790555060016005600083815260200190815260200160002060003373ffffffffffffffffffffffffffffffffffffffff1673ffffffffffffffffffffffffffffffffffffffff16815260200190815260200160002060006101000a81548160ff02191690831515021790555050565b600160009054906101000a900473ffffffffffffffffffffffffffffffffffffffff1681565b600080fd5b6000819050919050565b611beb81611bd8565b8114611bf657600080fd5b50565b600081359050611c0881611be2565b92915050565b600060208284031215611c2457611c23611bd3565b5b6000611c3284828501611bf9565b91505092915050565b600073ffffffffffffffffffffffffffffffffffffffff82169050919050565b6000611c6682611c3b565b9050919050565b611c7681611c5b565b82525050565b6000602082019050611c916000830184611c6d565b92915050565b611ca081611c5b565b8114611cab57600080fd5b50565b600081359050611cbd81611c97565b92915050565b600060208284031215611cd957611cd8611bd3565b5b6000611ce784828501611cae565b91505092915050565b60008115159050919050565b611d0581611cf0565b8114611d1057600080fd5b50565b600081359050611d2281611cfc565b92915050565b60008060008060808587031215611d4257611d41611bd3565b5b6000611d5087828801611bf9565b9450506020611d6187828801611bf9565b9350506040611d7287828801611bf9565b9250506060611d8387828801611d13565b91505092959194509250565b611d9881611cf0565b82525050565b6000602082019050611db36000830184611d8f565b92915050565b60008060408385031215611dd057611dcf611bd3565b5b6000611dde85828601611bf9565b9250506020611def85828601611cae565b9150509250929050565b6000819050919050565b6000611e1e611e19611e1484611c3b565b611df9565b611c3b565b9050919050565b6000611e3082611e03565b9050919050565b6000611e4282611e25565b9050919050565b611e5281611e37565b82525050565b6000602082019050611e6d6000830184611e49565b92915050565b6000611e7e82611c3b565b9050919050565b611e8e81611e73565b82525050565b611e9d81611bd8565b82525050565b600060a082019050611eb86000830188611e85565b611ec56020830187611e85565b611ed26040830186611e94565b611edf6060830185611e94565b611eec6080830184611d8f565b9695505050505050565b600082825260208201905092915050565b7f4f6e6c7920636f6e7472616374206f776e65722063616e2063616c6c2074686960008201527f73206d6574686f64000000000000000000000000000000000000000000000000602082015250565b6000611f63602883611ef6565b9150611f6e82611f07565b604082019050919050565b60006020820190508181036000830152611f9281611f56565b9050919050565b6000602082019050611fae6000830184611e94565b92915050565b600081519050611fc381611c97565b92915050565b600060208284031215611fdf57611fde611bd3565b5b6000611fed84828501611fb4565b91505092915050565b7f596f7520646f6e2774206f776e2074686973204e465400000000000000000000600082015250565b600061202c601683611ef6565b915061203782611ff6565b602082019050919050565b6000602082019050818103600083015261205b8161201f565b9050919050565b7f4e465420697320616c7265616479206c69737465640000000000000000000000600082015250565b6000612098601583611ef6565b91506120a382612062565b602082019050919050565b600060208201905081810360008301526120c78161208b565b9050919050565b60006060820190506120e36000830186611c6d565b6120f06020830185611c6d565b6120fd6040830184611e94565b949350505050565b600060408201905061211a6000830185611e94565b6121276020830184611e94565b9392505050565b7f4e4654206973206e6f74206c6973746564000000000000000000000000000000600082015250565b6000612164601183611ef6565b915061216f8261212e565b602082019050919050565b6000602082019050818103600083015261219381612157565b9050919050565b7f4e4654206973206e6f74207075626c6963000000000000000000000000000000600082015250565b60006121d0601183611ef6565b91506121db8261219a565b602082019050919050565b600060208201905081810360008301526121ff816121c3565b9050919050565b7f496e73756666696369656e742066756e64730000000000000000000000000000600082015250565b600061223c601283611ef6565b915061224782612206565b602082019050919050565b6000602082019050818103600083015261226b8161222f565b9050919050565b7f457363726f7720616d6f756e74206e6f74206465706f73697465640000000000600082015250565b60006122a8601b83611ef6565b91506122b382612272565b602082019050919050565b600060208201905081810360008301526122d78161229b565b9050919050565b7f4f6e6c792073656c6c65722063616e2066696e616c697a65207468652073616c60008201527f6500000000000000000000000000000000000000000000000000000000000000602082015250565b600061233a602183611ef6565b9150612345826122de565b604082019050919050565b600060208201905081810360008301526123698161232d565b9050919050565b600061237b82611e25565b9050919050565b61238b81612370565b82525050565b60006060820190506123a66000830186611c6d565b6123b36020830185612382565b6123c06040830184611e94565b949350505050565b7f596f7520617265206e6f74207468652073656c6c657200000000000000000000600082015250565b60006123fe601683611ef6565b9150612409826123c8565b602082019050919050565b6000602082019050818103600083015261242d816123f1565b9050919050565b7f596f7520617265206e6f74207468652073656c6c6572206f7220627579657200600082015250565b600061246a601f83611ef6565b915061247582612434565b602082019050919050565b600060208201905081810360008301526124998161245d565b905091905056fea2646970667358221220f81e355a40c0c31bd11e94b342e64911804cff15d208645b26788a477f83db9364736f6c63430008110033",
  "linkReferences": {},
  "deployedLinkReferences": {}
}